:100000000C94F5000C941D010C941D010C941D0121
:100010000C941D010C941D010C941D010C941D01E8
:100020000C941D010C941D010C945E050C94CD05DF
:100030000C941D010C941D010C941D010C941D01C8
:100040000C941D010C941D010C941D010C941D01B8
:100050000C941D010C941D010C941D010C94FF07C0
:100060000C941D010C941D010C941D010C941D0198
:100070000C941D010C941D010C941D010C941D0188
:100080000C941D010C941D010C941D010C941D0178
:100090000C941D010C941D010C941D010C941D0168
:1000A0000C941D010C941D010C941D010000000016
:1000B0002300260029002C002F0000000002000968
:1000C0000F0000030401000C00000000000000000D
:1000D000000000000000000000080B000202020007
:1000E00000090400000102020000052400100105BF
:1000F00024010101042402060524060001070581EC
:100100000310004009040100020A00000007050274
:1001100002400000070583024000000403090412A6
:10012000010002EF02014041233680000101020379
:100130000141726475696E6F204C4C4300417264DA
:1001400075696E6F204C656F6E6172646F000000A0
:100150000000250028002B002E00310000000000C8
:10016000240027002A002D003000040404040403A6
:100170000405020202020403020202020606060647
:10018000060604040202020404040802011040806E
:10019000401020408040800802040180402010026E
:1001A000011080102040402005010904A101A10296
:1001B00085017508950226FF00350046FF000930CD
:1001C0000931810265007501951025014501050978
:1001D0001901291081020600FF75019508250145C6
:1001E0000109018102C0C000490811241FBECFEFE0
:1001F000DAE0DEBFCDBF11E0A0E0B1E0ECEDF4E16C
:1002000002C005900D92A233B107D9F721E0A2E315
:10021000B1E001C01D92AC3CB207E1F710E0C5EFC0
:10022000D0E004C02197FE010E94660AC43FD107B6
:10023000C9F70E94DA080C946C0A0C940000CF9362
:10024000DF9390E0FC01E757FE4F249186599E4FC3
:10025000FC0184918823C1F090E0880F991FFC0174
:10026000E45AFE4FC591D491FC01E25BFE4FA5918B
:10027000B4919FB7F8943881822F80958323888327
:10028000EC91E22BEC939FBFDF91CF910895CF9338
:10029000DF93FC0181819091A501482F490F5527DB
:1002A000551F483051059CF5A281B381109709F57F
:1002B00021EA31E03383228320812093A3018093BC
:1002C000A4018091A601820F80832091A701A22F13
:1002D000B091A8018A2F821B8917E8F481813D9192
:1002E000C82FD0E0C45FDE4F38838F5F8183F2CFA9
:1002F000D90118962D913C91199721153105C1F717
:1003000021EA31E019963C932E931897D5CF80E0DF
:10031000DF91CF91089581E0FBCFFC0180915001E6
:10032000882311F13FB7F89482E08093E90020918F
:10033000F200822F90E01816190614F481E090E084
:10034000882339F0289844E640934F014091F1000A
:100350004083222339F02091F200211103C02BE6C3
:100360002093E8003FBF08958FEF9FEF0895CF934C
:10037000DF931F92CDB7DEB76983DC01ED91FC916D
:100380000280F381E02D41E050E0BE016F5F7F4FBE
:1003900009950F90DF91CF91089583E08093E90054
:1003A0008091F200882319F08AE38093E800089591
:1003B000CF93DF931F92CDB7DEB7FC01848595857F
:1003C00097FD08C02FEF3FEF358724870F90DF910F
:1003D000CF910895CE0101960E948D01019719F4E5
:1003E000898190E0F3CF8FEF9FEFF0CF0F931F93B2
:1003F000CF93DF931F92CDB7DEB78C01FC018485CC
:10040000958597FF0BC0CE0101960E948D01019743
:1004100071F4898190E0F80195878487F8018485DB
:1004200095850F90DF91CF911F910F9108958FEFD8
:100430009FEFF1CFFC018485958597FD0BC09FB799
:10044000F89482E08093E9008091F2009FBF90E0F1
:10045000019608959FB7F89482E08093E900809117
:10046000F2009FBF90E008954091490150914A01E8
:10047000209147013091480142175307B4F49091FD
:10048000E8009570E1F39091E80092FD19C0809327
:10049000F1008091490190914A0101968F7399274B
:1004A000892B19F48EEF8093E80080914901909197
:1004B0004A01019690934A018093490181E0089591
:1004C00080E00895EF92FF920F931F93CF93DF93F5
:1004D000F82E192FE62E042F81E0860F880F0E9438
:1004E000340283E00E943402CF2DD12FEC0EFD2E7A
:1004F000F11CCE15DF05B9F007FF13C0FE01849192
:100500000E943402182F80E00E9434028123219639
:100510008111EFCFDF91CF911F910F91FF90EF905D
:1005200008958881EDCF81E0F5CFDF92EF92FF92C1
:100530000F931F93CF93DF93D82E8A01EB017B019A
:10054000E40EF51ECE15DF0559F0D7FE12C0FE01F0
:1005500084910E94340221968111F4CF0FEF1FEF96
:10056000C801DF91CF911F910F91FF90EF90DF9025
:1005700008958881EECF2FB7F89487708093E900B3
:100580009091E800892F807295FF04C09091F2004D
:1005900080E4891B2FBF089583E00E94BB0290E096
:1005A0000895615030F02091F100FC012083019604
:1005B000F8CF289884E680934F01089580913F01F9
:1005C00081110DC082E080933B0184E080933C0167
:1005D00010923E0110923D0181E080933F018BE338
:1005E00091E008950F931F93CF93DF931F92CDB7A0
:1005F000DEB782E0898342E450E069ED70E080E894
:100600000E9495020E94DE02DC0112960D911C915F
:100610000115110589F0D801ED91FC910280F3815B
:10062000E02DBE016F5F7F4FC801099597FD04C0A3
:10063000F80100851185ECCF89810F90DF91CF9172
:100640001F910F910895282F30E0F901E654FF4FD4
:100650009491F901E757FE4F849126593E4FF901D5
:100660002491222309F45BC09923E9F091509F3033
:10067000D0F4E92FF0E0E15CFC4F0C94660A6A03C9
:100680006E034E0362036603530353035303710364
:1006900077037B037F0385035303890390918000D5
:1006A0009F7790938000E22FF0E0EE0FFF1FE4555C
:1006B000FF4FA591B491EC91E82381E090E089F59A
:1006C00080E00895909180009F7DEBCF9091800015
:1006D000977FE7CF94B59F7794BDE5CF94B59F7D85
:1006E000FBCF909190009F7790939000DCCF9091FA
:1006F00090009F7DF9CF90919000977FF5CF9091DA
:10070000C0009F779093C000CECF9091C0009F7D96
:10071000F9CF9091C200977F9093C200C4CF80E040
:1007200090E008953FB7F894809137019091380197
:10073000A0913901B0913A0126B5A89B05C02F3F81
:1007400019F00196A11DB11D3FBFBA2FA92F982FF7
:100750008827BC01CD01620F711D811D911D42E0F2
:10076000660F771F881F991F4A95D1F708958F92BA
:100770009F92AF92BF92CF92DF92EF92FF926B0166
:100780007C010E9492034B015C01C114D104E1047D
:10079000F104B9F00E949203681979098A099B094A
:1007A000683E73408105910580F321E0C21AD108AB
:1007B000E108F10888EE880E83E0981EA11CB11CA8
:1007C000E4CFFF90EF90DF90CF90BF90AF909F90DD
:1007D0008F9008957F928F929F92AF92BF92CF9207
:1007E000DF92EF92FF920F931F93CF93DF93C82E68
:1007F0008B017A0180915001811110C08FEF9FEF22
:10080000DF91CF911F910F91FF90EF90DF90CF90EC
:10081000BF90AF909F908F907F90089580914D01F1
:1008200080FF05C08091E00082608093E000CE2DC3
:10083000DF2DD12C8AEFB82E8C2D8770982E8C2D21
:100840008072882E8C2D8074782E9AE3A92E2097A2
:1008500019F4DD2009F452C08C2D0E94BB028111D5
:100860000AC0BA94BB2051F261E070E080E090E0F1
:100870000E94B703ECCF8C171D0611F00CF08C2FE3
:100880009FB7F8949092E9002091E80025FD02C0FE
:100890009FBFDDCF282F30E0C21BD30B882029F06B
:1008A0008150A0F01092F100FBCFF801C7FC0AC004
:1008B000815050F041914093F100FACF4491409320
:1008C000F10031968150D0F7020F131FDD2021F087
:1008D000A092E800D12CDCCF8091E80085FD07C014
:1008E000A092E800DD24D394209791F2F3CF2097D3
:1008F00079F6772069F2A092E800CACF5D9884E685
:1009000080934C01C7017CCFCF93DF93EC018091A2
:100910000B01882331F083E00E94EA0318161906C0
:1009200034F081E090E09B838A8380E090E0DF9167
:10093000CF910895DC01FB0112962C9112978481CE
:1009400095812817190641F491818081813A31F40B
:100950009D7F81E0913009F080E008958132E1F7D8
:100960009B3029F482811F968C9381E008959A3000
:1009700099F7828150968C93F8CFDC01FB0188E4D3
:10098000808389E4818384E482831D969C911D97F2
:100990009F709F5B93831D968D919C9124E096950B
:1009A00087952A95E1F78F708F5B848385E00895A2
:1009B000EF92FF920F931F93CF93DF93FB01208160
:1009C000213871F52381223259F5DC0112964C91C0
:1009D000248135814217130619F5EC010B851C851E
:1009E000F12CE12C0115110589F0F80144815581A4
:1009F0006281738180E80E9495028F3F980749F0D9
:100A0000E80EF91ED8010D911C91ECCF81E08F8783
:100A1000C701DF91CF911F910F91FF90EF90089543
:100A200090E080E0F6CFCF93DF93CDB7DEB7699744
:100A30000FB6F894DEBF0FBECDBFFC01DB018C9179
:100A40008F5F8C939E012D5F3F4F8DE0D9011D92EA
:100A50008A95E9F729E0298384E08A8391E09D83E0
:100A600083E08E832A8721E22B879C879D879F873F
:100A700022E2288B27E02B8B25E02C8B8E8B20E429
:100A800030E0388F2F8B998F82818B839585868577
:100A9000998B8A8B838180688D8B49E150E0BE0100
:100AA0006F5F7F4F80E00E94950269960FB6F894C1
:100AB000DEBF0FBECDBFDF91CF9108951F920F9281
:100AC0000FB60F9211248F939F938091E100909124
:100AD000E100937F9093E10083FF0FC01092E90043
:100AE00091E09093EB001092EC0092E39093ED0074
:100AF0001092500198E09093F00082FF22C093E0A2
:100B00009093E9009091F200992319F09AE3909361
:100B1000E80090914C01992341F090914C01915043
:100B200090934C01911101C05D9A90914F019923CE
:100B300041F090914F01915090934F01911101C05C
:100B4000289A84FF18C08091E2008E7E8160809395
:100B5000E2008091E1008F7E8093E10080914D0161
:100B60008E7E806180934D019F918F910F900FBE7B
:100B70000F901F90189580FFF7CF8091E2008E7E36
:100B800080618093E2008091E1008E7E8093E1009D
:100B900080914D018E7E8160E5CF1F920F920FB63E
:100BA0000F921124CF92DF92EF92FF920F931F9337
:100BB0002F933F934F935F936F937F938F939F9365
:100BC000AF93BF93EF93FF93CF93DF93CDB7DEB790
:100BD0006C97DEBFCDBF1092E9008091E80083FFE3
:100BE00025C068E0CE0145960E94D10282EF809335
:100BF000E8008D8987FF39C09091E80090FFFCCF15
:100C0000982F907609F034C19E894F89588D2F898D
:100C1000F88C911131C0803861F580914E0180933C
:100C2000F1001092F1008EEF8093E8006C960FB601
:100C3000F894DEBF0FBECDBFDF91CF91FF91EF9152
:100C4000BF91AF919F918F917F916F915F914F91E4
:100C50003F912F911F910F91FF90EF90DF90CF90D8
:100C60000F900FBE0F901F9018959EEF9093E80085
:100C7000C7CF1092F100D5CF913059F48111D3CF65
:100C80004130510581F680914E018D7F80934E0158
:100C9000CACF933049F48111C6CF4130510519F6BE
:100CA00080914E018260F2CF953041F48091E8004E
:100CB00080FFFCCF20682093E300B5CF963009F089
:100CC000A9C00B8D1C8D22E01092E90010924A0100
:100CD00010924901F2122EC0109248011092470161
:100CE0000E94F2021F8299E09983FA8291E09E832A
:100CF00090EA98879AEF99872091490130914A01AB
:100D0000275F3F4F3C832B838D831092E900109225
:100D10004A0110924901109348010093470149E0AC
:100D200050E0BE016F5F7F4F80E00E9495020E94FD
:100D3000F20279CF10934801009347010E94DE022E
:100D4000DC0112960D911C910115110509F451C198
:100D5000D801ED91FC910480F581E02DBE016B5E20
:100D60007F4FC8010995009709F03EC1F801008541
:100D70001185EACFF3E0FF120EC08F89882309F4B2
:100D800040C0823061F440E860E18DE391E00E9470
:100D90006202811148CF81E28093EB0047CF81301E
:100DA00029F440E86BE081E391E0F1CF833099F7DB
:100DB0000E94DE02DC011296ED90FC908E010F5F26
:100DC0001F4F6801E114F10479F0D701ED91FC9116
:100DD0000680F781E02DB801C7010995080F111DA4
:100DE000F701E084F184EECFD8011C92F601019066
:100DF0000020E9F73197BF016C197D0940E0C60179
:100E0000C6CF6BE171E0FB01449150E080E80E94A5
:100E1000950209CF973009F4BECF983021F481E0D4
:100E20008093F10000CF993009F0FDCE837009F076
:100E3000B2CFEDE0F1E081E031E096E321912223B1
:100E400071F08093E9003093EB00DF0111972C9152
:100E50002093EC009093ED008F5F873079F78EE759
:100E60008093EA001092EA008F8980935001DBCED4
:100E70008B8D9C8D1092E90010924A0110924901CD
:100E80009093480180934701898D811192C08E898A
:100E90009D89913A49F4813209F07DCF47E050E0D5
:100EA00064E071E080E0B3CF913209F074CF833217
:100EB00069F48F89988DB0E0A0E080930001909351
:100EC0000101A0930201B0930301ADCE803269F419
:100ED0008091E80082FFFCCF67E084E091E00E940F
:100EE000D1028BEF8093E8009ECE823209F09BCE38
:100EF0008F8980930B01EEEFFFE7859194918B3FF3
:100F00009C4D51F1E0E0F8E08091040190910501E1
:100F1000A0910601B0910701803B9440A105B10565
:100F2000F1F480910B0180FD1AC0EE3F8AE0F807D2
:100F300089F587E797E791838083809160008093AC
:100F40004B0188E19BE00FB6F894A8958093600070
:100F50000FBE9093600067CEEEEFFAE0D5CF8081B0
:100F600091818737974709F05ECEA8958091600000
:100F700088618093600080914B0180936000EE3F18
:100F80002AE0F20789F08091FE0A9091FF0A91838E
:100F9000808349CE808191818737980751F2909361
:100FA000FF0A8093FE0AC5CF1092FF0A1092FE0A34
:100FB0003ACE0E94DE02DC0112960D911C910115C1
:100FC000110509F4E8CED801ED91FC910190F08172
:100FD000E02DBE016B5E7F4FC8010995811123CEC4
:100FE000F80100851185EBCF181619060CF41BCEFD
:100FF000D2CEF1E0FF12BECE6FE171E004CF1F92BE
:101000000F920FB60F9211242F933F938F939F93BC
:10101000AF93BF938091330190913401A09135013A
:10102000B09136013091320123E0230F2D3758F56E
:101030000196A11DB11D209332018093330190933D
:101040003401A0933501B09336018091370190911E
:101050003801A0913901B0913A010196A11DB11D4D
:101060008093370190933801A0933901B0933A01EE
:10107000BF91AF919F918F913F912F910F900FBE94
:101080000F901F90189526E8230F0296A11DB11D01
:10109000D2CFCF93109254011092530188EE93E077
:1010A000A0E0B0E08093550190935601A0935701C2
:1010B000B093580187E191E09093520180935101E0
:1010C0008FEF9FEF90935E0180935D011092C901B5
:1010D0001092C8018FE78093CA018093CB01809161
:1010E000C001811113C01092BB011092BA0188EAAD
:1010F00091E09093BD018093BC018FE390E09093C9
:10110000BF018093BE0181E08093C0018091B20154
:1011100081112AC0C1E0C093A501C093A6018BEA4A
:1011200091E09093A8018093A7011092AA011092D8
:10113000A90189E291E09093A2018093A10110920C
:10114000AD011092AC011092AF011092AE01C093AC
:10115000B001C093B10181EC8093AB010E94DE022B
:101160000E944701C093B201E091AC01F091AD0142
:101170003097B9F48AEB91E09093AD018093AC0184
:101180008091AE019091AF012091BE013091BF01DD
:10119000820F931F9093AF018093AE01CF9108957A
:1011A000FC01808191810097D9F78AEB91E09183CE
:1011B0008083E6CFCF93DF9300D000D000D0CDB7AF
:1011C000DEB7789484B5826084BD84B5816084BDC7
:1011D00085B5826085BD85B5816085BD80916E00D5
:1011E000816080936E001092810080918100826006
:1011F0008093810080918100816080938100809143
:101200008000816080938000809191008260809353
:101210009100809191008160809391008091900075
:101220008160809390008091C10084608093C100B0
:101230008091C10082608093C1008091C100816073
:101240008093C1008091C30081608093C30080912E
:10125000C00082608093C0008091C2008160809352
:10126000C20080917A00846080937A0080917A0035
:10127000826080937A0080917A00816080937A0006
:1012800080917A00806880937A00109250011092C9
:101290004E0110924D018091D70081608093D7005C
:1012A00080EA8093D80089B5806189BD89B5826064
:1012B00089BD09B400FEFDCF61E070E080E090E000
:1012C0000E94B7038091D8008F7C80618093D80002
:1012D0008091E000807F8093E0008091E1008E7E2D
:1012E0008093E1008DE08093E200559A209A82E09D
:1012F0000E941F0183E00E941F0184E00E941F01E1
:1013000085E00E941F0186E00E941F0187E00E9485
:101310001F0188E00E941F0189E00E941F018AE0EE
:101320000E941F010FE790E0E92E90E0F92E99242A
:101330009A9411E02BEAC22E21E0D22E39E2A32E9C
:1013400031E0B32E81EC882E1092C9011092C801B1
:101350000093CA010093CB0186E00E942303892BEE
:1013600049F48091C8019091C90180649093C901AA
:101370008093C80187E00E942303892B49F4809160
:10138000C8019091C90192609093C9018093C801EE
:1013900088E00E942303892B49F48091C801909131
:1013A000C90191609093C9018093C80189E00E94AE
:1013B0002303892B49F48091C8019091C90182606F
:1013C0009093C9018093C8018AE00E942303892B6E
:1013D00049F48091C8019091C90184609093C9013A
:1013E0008093C80182E00E942303892B11F410929C
:1013F000CB0185E00E942303892B11F49092CA014E
:1014000083E00E942303892B11F49092CB0184E0A6
:101410000E942303892B11F41092CA018091CA0102
:1014200089838091CB018A839091C8018091C90101
:101430009B838C831D828091B201811124C0109303
:10144000A5011093A601D092A801C092A701109205
:10145000AA011092A901B092A201A092A10110923A
:10146000AD011092AC011092AF011092AE01109339
:10147000B0011093B1018092AB010E94DE020E9484
:1014800047011093B2011E8341E050E0BE016A5F44
:101490007F4F8091A4010E94EA0397FD0AC08091CA
:1014A000A40145E050E0BE016F5F7F4F80640E9461
:1014B000EA0361E070E080E090E00E94B703E1148D
:1014C000F10409F441CF0E9400003CCFEE0FFF1F52
:0C14D0000590F491E02D0994F894FFCFF2
:1014DC00FFFFFFFF00E100000000000000C1808161
:1014EC0000000000000000B7018404CC02CD011AFA
:1014FC0002D801F601000000009A041305D804BDBF
:02150C000400D9
:00000001FF
