:100000000C9404010C942C010C942C010C942C01E4
:100010000C942C010C942C010C942C010C942C01AC
:100020000C942C010C942C010C942C050C949B0525
:100030000C942C010C942C010C942C010C942C018C
:100040000C942C010C942C010C942C010C942C017C
:100050000C942C010C942C010C942C010C94CD07C5
:100060000C942C010C942C010C942C010C942C015C
:100070000C942C010C942C010C942C010C942C014C
:100080000C942C010C942C010C942C010C942C013C
:100090000C942C010C942C010C942C010C942C012C
:1000A0000C942C010C942C010C942C0105010904D6
:1000B000A101A10275089505150026FF003500462F
:1000C000FF00093009300930093009318102750417
:1000D00095012507463B01651409008142650075BD
:1000E00001950A2501450105091901290A81020620
:1000F00000FF7501950A2501450109018102C0A192
:10010000027508950446FF0026FF0009029102C00F
:10011000C000000000240027002A002D003000004D
:100120000000002300260029002C002F00080B00EF
:10013000020202000009040000010202000005247E
:100140000010010524010101042402060524060013
:10015000010705810310004009040100020A0000A4
:10016000000705020240000007058302400000046A
:1001700003090412010002EF020140A30C25000054
:100180000101020301556E6B6E6F776E00334220E2
:10019000636F6E74726F6C6C6572000000000025F6
:1001A0000028002B002E0031000404040404030482
:1001B0000502020202040302020202060606060605
:1001C00006040402020204040408020110408040F4
:1001D000102040804080080204018040201002016D
:1001E000108010204040200000000200090F000095
:1001F000030401000C0000000000000000000000EB
:100200000000000000001F0811241FBECFEFDAE03D
:10021000DEBFCDBF11E0A0E0B1E0E4EEF3E102C04B
:1002200005900D92AA33B107D9F721E0AAE3B1E016
:1002300001C01D92AB3CB207E1F711E0C4E0D1E090
:1002400004C02197FE010E94EA09C330D107C9F713
:100250000E94AC080C94F0090C940000FC01809101
:100260005801882311F13FB7F89482E08093E900A8
:100270002091F200822F90E01816190614F481E004
:1002800090E0882339F0289844E640935701409144
:10029000F1004083222339F02091F200211103C0A4
:1002A0002BE62093E8003FBF08958FEF9FEF08955E
:1002B000CF93DF931F92CDB7DEB76983DC01ED9159
:1002C000FC910280F381E02D41E050E0BE016F5FC0
:1002D0007F4F09950F90DF91CF91089583E0809330
:1002E000E9008091F200882319F08AE38093E80006
:1002F0000895CF93DF931F92CDB7DEB7FC018485BD
:10030000958597FD08C02FEF3FEF358724870F9025
:10031000DF91CF910895CE0101960E942E010197A1
:1003200019F4898190E0F3CF8FEF9FEFF0CF0F9317
:100330001F93CF93DF931F92CDB7DEB78C01FC01E3
:100340008485958597FF0BC0CE0101960E942E01F2
:10035000019771F4898190E0F80195878487F8010D
:10036000848595850F90DF91CF911F910F9108950E
:100370008FEF9FEFF1CFFC018485958597FD0BC032
:100380009FB7F89482E08093E9008091F2009FBFCC
:1003900090E0019608959FB7F89482E08093E90079
:1003A0008091F2009FBF90E00895409151015091DB
:1003B000520120914F013091500142175307B4F47C
:1003C0009091E8009570E1F39091E80092FD19C0DA
:1003D0008093F100809151019091520101968F73A9
:1003E0009927892B19F48EEF8093E80080915101B1
:1003F000909152010196909352018093510181E0B6
:10040000089580E00895EF92FF920F931F93CF938A
:10041000DF93F82E192FE62E042F81E0860F880F28
:100420000E94D50183E00E94D501CF2DD12FEC0E83
:10043000FD2EF11CCE15DF05B9F007FF13C0FE013C
:1004400084910E94D501182F80E00E94D50181235C
:1004500021968111EFCFDF91CF911F910F91FF90E6
:10046000EF9008958881EDCF81E0F5CFDF92EF9294
:10047000FF920F931F93CF93DF93D82E8A01EB0146
:100480007B01E40EF51ECE15DF0559F0D7FE12C034
:10049000FE0184910E94D50121968111F4CF0FEFC6
:1004A0001FEFC801DF91CF911F910F91FF90EF9047
:1004B000DF9008958881EECF2FB7F89487708093EE
:1004C000E9009091E800892F807295FF04C0909117
:1004D000F20080E4891B2FBF089583E00E945C0234
:1004E00090E00895615030F02091F100FC012083EC
:1004F0000196F8CF289884E680935701089580915B
:10050000470181110DC082E08093430184E0809314
:100510004401109246011092450181E08093470109
:1005200083E491E008950F931F93CF93DF931F927D
:10053000CDB7DEB782E0898342E450E06DE271E03E
:1005400080E80E9436020E947F02DC0112960D9123
:100550001C910115110589F0D801ED91FC910280E3
:10056000F381E02DBE016F5F7F4FC801099597FDB4
:1005700004C0F80100851185ECCF89810F90DF91CF
:10058000CF911F910F91089581508F3008F047C08F
:10059000E82FF0E0E253FD4F0C94EA09EB02EF0282
:1005A000DD02E302E7020F030F030F03F202F8027A
:1005B000FC02000306030F030A03809180008F777B
:1005C000809380000895809180008F7DF9CF809185
:1005D0008000877FF5CF84B58F7784BD089584B57B
:1005E0008F7DFBCF809190008F778093900008954E
:1005F000809190008F7DF9CF80919000877FF5CF1B
:100600008091C0008F778093C00008958091C000D2
:100610008F7DF9CF8091C200877F8093C2000895BB
:100620001F93CF93DF93EEEEF1E09491EFECF1E0C6
:10063000D491E0EBF1E0C491CC23B9F0182F9923C9
:1006400019F0892F0E94C402EC2FF0E0EE0FFF1F7B
:10065000E556FE4FA591B4918FB7F894EC91111126
:1006600008C0D095DE23DC938FBFDF91CF911F911F
:100670000895DE2BF8CFCF93DF93282F30E0F901D8
:10068000E951FE4F8491F901E853FE4FD491F901ED
:10069000E755FE4FC491CC23A1F081110E94C40202
:1006A000EC2FF0E0EE0FFF1FE15EFE4FA591B4913D
:1006B000EC91ED2381E090E009F480E0DF91CF91AF
:1006C000089580E090E0FACFCF93DF9390E0FC01B3
:1006D000E853FE4F249187559E4FFC018491882357
:1006E000D1F090E0880F991FFC01EF5EFE4FA591BD
:1006F000B491FC01E556FE4FC591D491623071F47E
:100700009FB7F8943C91822F809583238C93E88146
:100710002E2B28839FBFDF91CF9108958FB7F89438
:10072000EC912E2B2C938FBFF6CF3FB7F89480918E
:100730003F0190914001A0914101B091420126B545
:10074000A89B05C02F3F19F00196A11DB11D3FBF09
:10075000BA2FA92F982F8827BC01CD01620F711DD8
:10076000811D911D42E0660F771F881F991F4A95D2
:10077000D1F708958F929F92AF92BF92CF92DF925E
:10078000EF92FF924B015C010E9495036B017C018B
:100790000E9495036C197D098E099F09683E73407C
:1007A00081059105A8F321E0821A9108A108B108FA
:1007B00088EEC80E83E0D81EE11CF11C8114910460
:1007C000A104B10429F7FF90EF90DF90CF90BF9084
:1007D000AF909F908F9008957F928F929F92AF924B
:1007E000BF92CF92DF92EF92FF920F931F93CF931E
:1007F000DF93C82E8B017A0180915801811110C0BE
:100800008FEF9FEFDF91CF911F910F91FF90EF90AE
:10081000DF90CF90BF90AF909F908F907F90089582
:100820008091550180FF05C08091E0008260809337
:10083000E000CE2DDF2DD12C8AEFB82E8C2D8770C5
:10084000982E8C2D8072882E8C2D8074782E9AE3B1
:10085000A92E209719F4DD2009F452C08C2D0E9496
:100860005C0281110AC0BA94BB2051F261E070E0D1
:1008700080E090E00E94BA03ECCF8C171D0611F0C7
:100880000CF08C2F9FB7F8949092E9002091E8002B
:1008900025FD02C09FBFDDCF282F30E0C21BD30B48
:1008A000882029F08150A0F01092F100FBCFF801D0
:1008B000C7FC0AC0815050F041914093F100FACF3B
:1008C00044914093F10031968150D0F7020F131FED
:1008D000DD2021F0A092E800D12CDCCF8091E8004F
:1008E00085FD07C0A092E800DD24D394209791F203
:1008F000F3CF209779F6772069F2A092E800CACF6B
:100900005D9884E680935401C7017CCFCF93DF9339
:10091000EC0180910B01882331F083E00E94EC030D
:100920001816190634F081E090E09B838A8380E0FA
:1009300090E0DF91CF910895DC01FB0112962C919C
:100940001297848195812817190641F4918180813D
:10095000813A31F49D7F81E0913009F080E0089583
:100960008132E1F79B3029F4828190968C9381E06B
:1009700008959A3099F7828191968C93F8CFFB0174
:1009800020812138B1F42381223299F4DC011296BE
:100990004C911297248135814217130651F421E0BE
:1009A00090962C9345E650E06CEA70E080E80C9459
:1009B000360290E080E00895CF93DF93CDB7DEB7A5
:1009C00069970FB6F894DEBF0FBECDBFFC01DB0107
:1009D0009C919F5F9C939E012D5F3F4F81E1D901C8
:1009E0001D928A95E9F729E0298384E08A8391E0C2
:1009F0009D8383E08E832A8721E22B879C879D87B6
:100A00009F8722E2288B25E6298B27E02B8B25E088
:100A10002C8B8E8B20E430E0388F2F8B998F828146
:100A20008B83838180688D8B49E150E0BE016F5FCD
:100A30007F4F80E00E94360269960FB6F894DEBFC1
:100A40000FBECDBFDF91CF910895FC0182818F5BF6
:100A5000FB01808381E008951F920F920FB60F92E1
:100A600011248F939F938091E1009091E100937FF7
:100A70009093E10083FF0FC01092E90091E0909302
:100A8000EB001092EC0092E39093ED00109258016D
:100A900098E09093F00082FF22C093E09093E900E9
:100AA0009091F200992319F09AE39093E8009091C5
:100AB0005401992341F09091540191509093540125
:100AC000911101C05D9A90915701992341F0909145
:100AD0005701915090935701911101C0289A84FFBA
:100AE00018C08091E2008E7E81608093E200809148
:100AF000E1008F7E8093E100809155018E7E8061C0
:100B0000809355019F918F910F900FBE0F901F9072
:100B1000189580FFF7CF8091E2008E7E80618093F0
:100B2000E2008091E1008E7E8093E100809155018A
:100B30008E7E8160E5CF1F920F920FB60F92112427
:100B4000CF92DF92EF92FF920F931F932F933F93D9
:100B50004F935F936F937F938F939F93AF93BF93C5
:100B6000EF93FF93CF93DF93CDB7DEB76C97DEBFE4
:100B7000CDBF1092E9008091E80083FF25C068E0B6
:100B8000CE0145960E94720282EF8093E8008D8923
:100B900087FF39C09091E80090FFFCCF982F9076A6
:100BA00009F034C19E894F89588D2F89F88C911195
:100BB00031C0803861F5809156018093F100109228
:100BC000F1008EEF8093E8006C960FB6F894DEBFCC
:100BD0000FBECDBFDF91CF91FF91EF91BF91AF914C
:100BE0009F918F917F916F915F914F913F912F9145
:100BF0001F910F91FF90EF90DF90CF900F900FBE5D
:100C00000F901F9018959EEF9093E800C7CF109219
:100C1000F100D5CF913059F48111D3CF4130510536
:100C200081F6809156018D7F80935601CACF933013
:100C300049F48111C6CF4130510519F68091560112
:100C40008260F2CF953041F48091E80080FFFCCFC4
:100C500020682093E300B5CF963009F0A9C00B8D32
:100C60001C8D22E01092E900109252011092510165
:100C7000F2122EC01092500110924F010E94930266
:100C80001F8299E09983FA8291E09E8390EA988787
:100C90009AEF99872091510130915201275F3F4F80
:100CA0003C832B838D831092E900109252011092A5
:100CB00051011093500100934F0149E050E0BE01F3
:100CC0006F5F7F4F80E00E9436020E94930279CFCF
:100CD0001093500100934F010E947F02DC01129695
:100CE0000D911C910115110509F451C1D801ED9127
:100CF000FC910480F581E02DBE016B5E7F4FC80141
:100D00000995009709F03EC1F80100851185EACFE9
:100D1000F3E0FF120EC08F89882309F440C08230AF
:100D200061F440E86DE08DE891E00E9403028111DA
:100D300048CF81E28093EB0047CF813029F440E82F
:100D400067E085E891E0F1CF833099F70E947F0258
:100D5000DC011296ED90FC908E010F5F1F4F680131
:100D6000E114F10479F0D701ED91FC910680F7814F
:100D7000E02DB801C7010995080F111DF701E084A6
:100D8000F184EECFD8011C92F60101900020E9F722
:100D90003197BF016C197D0940E0C601C6CF6FE6EF
:100DA00071E0FB01449150E080E80E94360209CFD7
:100DB000973009F4BECF983021F481E08093F100A0
:100DC00000CF993009F0FDCE837009F0B2CFEDE08D
:100DD000F1E081E031E096E32191222371F08093EC
:100DE000E9003093EB00DF0111972C912093EC0088
:100DF0009093ED008F5F873079F78EE78093EA005C
:100E00001092EA008F8980935801DBCE8B8D9C8DE8
:100E10001092E900109252011092510190935001EA
:100E200080934F01898D811192C08E899D89913A5D
:100E300049F4813209F07DCF47E050E064E071E091
:100E400080E0B3CF913209F074CF833269F48F8997
:100E5000988DB0E0A0E08093000190930101A093F1
:100E60000201B0930301ADCE803269F48091E800B5
:100E700082FFFCCF67E084E091E00E9472028BEF7A
:100E80008093E8009ECE823209F09BCE8F898093BA
:100E90000B01EEEFFFE7859194918B3F9C4D51F153
:100EA000E0E0F8E08091040190910501A091060135
:100EB000B0910701803B9440A105B105F1F4809108
:100EC0000B0180FD1AC0EE3F8AE0F80789F587E73D
:100ED00097E791838083809160008093530188E13C
:100EE0009BE00FB6F894A895809360000FBE909396
:100EF000600067CEEEEFFAE0D5CF80819181873731
:100F0000974709F05ECEA895809160008861809334
:100F100060008091530180936000EE3F2AE0F20769
:100F200089F08091FE0A9091FF0A9183808349CED7
:100F3000808191818737980751F29093FF0A8093BF
:100F4000FE0AC5CF1092FF0A1092FE0A3ACE0E9406
:100F50007F02DC0112960D911C910115110509F417
:100F6000E8CED801ED91FC910190F081E02DBE0119
:100F70006B5E7F4FC8010995811123CEF801008572
:100F80001185EBCF181619060CF41BCED2CEF1E06A
:100F9000FF12BECE63E771E004CF1F920F920FB62F
:100FA0000F9211242F933F938F939F93AF93BF93EF
:100FB00080913B0190913C01A0913D01B0913E0197
:100FC00030913A0123E0230F2D3758F50196A11DEA
:100FD000B11D20933A0180933B0190933C01A09373
:100FE0003D01B0933E0180913F0190914001A0915D
:100FF0004101B09142010196A11DB11D80933F01B5
:1010000090934001A0934101B0934201BF91AF91F1
:101010009F918F913F912F910F900FBE0F901F9036
:10102000189526E8230F0296A11DB11DD2CFFC0111
:10103000838180640C94EC030A970C941708CF9377
:10104000DF9310925C0110925B0188EE93E0A0E0C8
:10105000B0E080935D0190935E01A0935F01B09337
:10106000600187E191E090935A01809359018FEFDD
:101070009FEF909366018093650181E08093AD01BD
:101080008093AE0128EC31E03093B0012093AF01A2
:101090001092B2011092B10129E231E03093AA011D
:1010A0002093A90127E331E03093B4012093B301E9
:1010B0009FE09093C4011092C5019FE79093C601F1
:1010C0009093C7018093C9018093CA0181EC8093FA
:1010D000C8010E947F02FC0181819091AD01482FDF
:1010E000490F5527551F483051059CF5A281B38102
:1010F000109709F529EA31E0338322832081209378
:10110000AB018093AC018091AE01820F808320916E
:10111000AF01A22FB091B0018A2F821B8917C8F4AA
:1011200081813D91C82FD0E0C45FDE4F38838F5F4F
:101130008183F2CFD90118962D913C9119972115F1
:101140003105C1F729EA31E019963C932E9318979F
:10115000D5CFDF91CF910895CF93DF93CDB7DEB791
:1011600028970FB6F894DEBF0FBECDBF789484B534
:10117000826084BD84B5816084BD85B5826085BD93
:1011800085B5816085BD80916E00816080936E0021
:101190001092810080918100826080938100809113
:1011A00081008160809381008091800081608093C4
:1011B00080008091910082608093910080919100E5
:1011C0008160809391008091900081608093900075
:1011D0008091C10084608093C1008091C1008260D1
:1011E0008093C1008091C10081608093C100809193
:1011F000C30081608093C3008091C00082608093AF
:10120000C0008091C20081608093C20080917A000A
:10121000846080937A0080917A00826080937A0063
:1012200080917A00816080937A0080917A00806852
:1012300080937A0010925801109256011092550135
:101240008091D70081608093D70080EA8093D80096
:1012500089B5806189BD89B5826089BD09B400FE08
:10126000FDCF61E070E080E090E00E94BA038091E1
:10127000D8008F7C80618093D8008091E000807FCF
:101280008093E0008091E1008E7E8093E1008DE00C
:101290008093E200559A209A61E087E00E946403FF
:1012A00062E082E00E94640362E084E00E946403E2
:1012B00062E089E00E94640362E08AE00E946403C5
:1012C00062E08EE00E94640362E086E00E946403B4
:1012D0008FE0D82E9FE7F92E00E010E0EE24EA948C
:1012E000D092C4011092C501F092C601F092C701DC
:1012F00081E00E94100382E00E943B03892B11F4DD
:101300001092C70184E00E943B03892B11F4E09204
:10131000C70189E00E943B03892B11F41092C6019A
:101320008AE00E943B03892B11F4E092C6018EE013
:101330000E943B03892B29F48091C4018F62809322
:10134000C40186E00E943B03892B29F48091C501EA
:1013500082608093C50180E00E9410038EE00E94AD
:101360003B03892B29F48091C4018F648093C401CD
:1013700086E00E943B03892B29F48091C50180629D
:101380008093C50181E089838091C6018A838B8324
:101390008C838091C7018D838091C4018E8380915D
:1013A000C5018F8318868091AC0148E050E0BE01F2
:1013B0006F5F7F4F80640E94EC036AE070E080E022
:1013C00090E00E94BA030115110509F489CF0E942B
:1013D000000086CFEE0FFF1F0590F491E02D0994D9
:0413E000F894FFCFAF
:1013E400FFFFFFFF00E100000000000000C180815A
:1013F40000000000000000580186046D026E01BB6D
:101404000179019701000000009C04DC04BF04255D
:0A141400051708F6FF00001C080091
:00000001FF
